{
  "_format": "hh-sol-artifact-1",
  "contractName": "IPFSStorage",
  "sourceName": "contracts/IPFSStorage.sol",
  "abi": [
    {
      "inputs": [],
      "name": "getCID",
      "outputs": [
        {
          "internalType": "bytes32",
          "name": "digest",
          "type": "bytes32"
        },
        {
          "internalType": "uint8",
          "name": "hashfunction",
          "type": "uint8"
        },
        {
          "internalType": "uint8",
          "name": "size",
          "type": "uint8"
        }
      ],
      "stateMutability": "view",
      "type": "function"
    },
    {
      "inputs": [
        {
          "internalType": "bytes32",
          "name": "_hash",
          "type": "bytes32"
        },
        {
          "internalType": "uint8",
          "name": "_hash_function",
          "type": "uint8"
        },
        {
          "internalType": "uint8",
          "name": "_size",
          "type": "uint8"
        }
      ],
      "name": "setCID",
      "outputs": [],
      "stateMutability": "nonpayable",
      "type": "function"
    }
  ],
  "bytecode": "0x608060405234801561001057600080fd5b506102b2806100206000396000f3fe608060405234801561001057600080fd5b50600436106100365760003560e01c806302790e341461003b578063686cf4521461005b575b600080fd5b610043610077565b60405161005293929190610200565b60405180910390f35b61007560048036038101906100709190610193565b6100b2565b005b60008060008060000154600060010160009054906101000a900460ff16600060010160019054906101000a900460ff16925092509250909192565b6100ba61013f565b8381600001818152505082816020019060ff16908160ff168152505081816040019060ff16908160ff168152505080600080820151816000015560208201518160010160006101000a81548160ff021916908360ff16021790555060408201518160010160016101000a81548160ff021916908360ff16021790555090505050505050565b604051806060016040528060008019168152602001600060ff168152602001600060ff1681525090565b6000813590506101788161024e565b92915050565b60008135905061018d81610265565b92915050565b6000806000606084860312156101a857600080fd5b60006101b686828701610169565b93505060206101c78682870161017e565b92505060406101d88682870161017e565b9150509250925092565b6101eb81610237565b82525050565b6101fa81610241565b82525050565b600060608201905061021560008301866101e2565b61022260208301856101f1565b61022f60408301846101f1565b949350505050565b6000819050919050565b600060ff82169050919050565b61025781610237565b811461026257600080fd5b50565b61026e81610241565b811461027957600080fd5b5056fea26469706673582212206d4f28efb7384b9f2340a85ceae1841ea84b484f4a17a5dd733ea38587c162ad64736f6c63430008000033",
  "linkReferences": {},
  "deployedLinkReferences": {}
}